{
  "address": "0xe7f1725E7734CE288F8367e1Bb143E90bb3F0512",
  "abi": [
    {
      "inputs": [],
      "stateMutability": "nonpayable",
      "type": "constructor"
    },
    {
      "inputs": [],
      "name": "bankdpp__invalidRequest",
      "type": "error"
    },
    {
      "inputs": [],
      "name": "bankdpp__notEnoughSavings",
      "type": "error"
    },
    {
      "inputs": [],
      "name": "bankdpp__onlyOwner",
      "type": "error"
    },
    {
      "inputs": [],
      "name": "bankdpp__transactionFailed",
      "type": "error"
    },
    {
      "inputs": [
        {
          "internalType": "string",
          "name": "feedBack",
          "type": "string"
        }
      ],
      "name": "ProvideFeedBack",
      "outputs": [],
      "stateMutability": "nonpayable",
      "type": "function"
    },
    {
      "inputs": [],
      "name": "deposite",
      "outputs": [],
      "stateMutability": "payable",
      "type": "function"
    },
    {
      "inputs": [],
      "name": "getOwner",
      "outputs": [
        {
          "internalType": "address",
          "name": "",
          "type": "address"
        }
      ],
      "stateMutability": "view",
      "type": "function"
    },
    {
      "inputs": [],
      "name": "givenFeedbackResponse",
      "outputs": [
        {
          "internalType": "string",
          "name": "",
          "type": "string"
        }
      ],
      "stateMutability": "view",
      "type": "function"
    },
    {
      "inputs": [
        {
          "internalType": "address",
          "name": "user",
          "type": "address"
        }
      ],
      "name": "peopleResponses",
      "outputs": [
        {
          "internalType": "string",
          "name": "",
          "type": "string"
        }
      ],
      "stateMutability": "view",
      "type": "function"
    },
    {
      "inputs": [],
      "name": "totalBalanceOfBank",
      "outputs": [
        {
          "internalType": "uint256",
          "name": "",
          "type": "uint256"
        }
      ],
      "stateMutability": "view",
      "type": "function"
    },
    {
      "inputs": [
        {
          "internalType": "uint256",
          "name": "ethAmount",
          "type": "uint256"
        }
      ],
      "name": "withdraw",
      "outputs": [],
      "stateMutability": "nonpayable",
      "type": "function"
    },
    {
      "inputs": [],
      "name": "yourTotalAmountInBank",
      "outputs": [
        {
          "internalType": "uint256",
          "name": "",
          "type": "uint256"
        }
      ],
      "stateMutability": "view",
      "type": "function"
    }
  ],
  "transactionHash": "0xa3ef19438a6272400a58a004234185fc99b9d893ec6e748022735b0470714d49",
  "args": [],
  "numDeployments": 1,
  "solcInputHash": "7624c2cee63959f6d25a03cbf86f24ef",
  "bytecode": "0x60a060405234801561001057600080fd5b503373ffffffffffffffffffffffffffffffffffffffff1660808173ffffffffffffffffffffffffffffffffffffffff1660601b8152505060805160601c610c9461006d600039600081816101c9015261053c0152610c946000f3fe60806040526004361061007b5760003560e01c8063893d20e81161004e578063893d20e81461013a578063998d569814610165578063a50ec32614610190578063c9268e381461019a5761007b565b80630d034488146100805780632e1a7d4d146100bd5780633ad2e337146100e6578063546ff9db14610111575b600080fd5b34801561008c57600080fd5b506100a760048036038101906100a29190610809565b6101c5565b6040516100b49190610956565b60405180910390f35b3480156100c957600080fd5b506100e460048036038101906100df919061087f565b61031b565b005b3480156100f257600080fd5b506100fb6104d9565b6040516101089190610978565b60405180910390f35b34801561011d57600080fd5b5061013860048036038101906101339190610836565b6104e1565b005b34801561014657600080fd5b5061014f610538565b60405161015c919061093b565b60405180910390f35b34801561017157600080fd5b5061017a610560565b6040516101879190610978565b60405180910390f35b6101986105a6565b005b3480156101a657600080fd5b506101af6105fd565b6040516101bc9190610956565b60405180910390f35b60607f000000000000000000000000000000000000000000000000000000000000000073ffffffffffffffffffffffffffffffffffffffff163373ffffffffffffffffffffffffffffffffffffffff161461024c576040517f43f6b67c00000000000000000000000000000000000000000000000000000000815260040160405180910390fd5b600160008373ffffffffffffffffffffffffffffffffffffffff1673ffffffffffffffffffffffffffffffffffffffff168152602001908152602001600020805461029690610b18565b80601f01602080910402602001604051908101604052809291908181526020018280546102c290610b18565b801561030f5780601f106102e45761010080835404028352916020019161030f565b820191906000526020600020905b8154815290600101906020018083116102f257829003601f168201915b50505050509050919050565b60008060003373ffffffffffffffffffffffffffffffffffffffff1673ffffffffffffffffffffffffffffffffffffffff16815260200190815260200160002054905060008111610398576040517ffad3c26e00000000000000000000000000000000000000000000000000000000815260040160405180910390fd5b60008111156103dc57808211156103db576040517f30c40ef500000000000000000000000000000000000000000000000000000000815260040160405180910390fd5b5b816000803373ffffffffffffffffffffffffffffffffffffffff1673ffffffffffffffffffffffffffffffffffffffff168152602001908152602001600020600082825461042a9190610a66565b9250508190555060003373ffffffffffffffffffffffffffffffffffffffff168360405161045790610926565b60006040518083038185875af1925050503d8060008114610494576040519150601f19603f3d011682016040523d82523d6000602084013e610499565b606091505b50509050806104d4576040517f90fbdadd00000000000000000000000000000000000000000000000000000000815260040160405180910390fd5b505050565b600047905090565b80600160003373ffffffffffffffffffffffffffffffffffffffff1673ffffffffffffffffffffffffffffffffffffffff16815260200190815260200160002090805190602001906105349291906106cc565b5050565b60007f0000000000000000000000000000000000000000000000000000000000000000905090565b60008060003373ffffffffffffffffffffffffffffffffffffffff1673ffffffffffffffffffffffffffffffffffffffff16815260200190815260200160002054905090565b346000803373ffffffffffffffffffffffffffffffffffffffff1673ffffffffffffffffffffffffffffffffffffffff16815260200190815260200160002060008282546105f49190610a10565b92505081905550565b6060600160003373ffffffffffffffffffffffffffffffffffffffff1673ffffffffffffffffffffffffffffffffffffffff168152602001908152602001600020805461064990610b18565b80601f016020809104026020016040519081016040528092919081815260200182805461067590610b18565b80156106c25780601f10610697576101008083540402835291602001916106c2565b820191906000526020600020905b8154815290600101906020018083116106a557829003601f168201915b5050505050905090565b8280546106d890610b18565b90600052602060002090601f0160209004810192826106fa5760008555610741565b82601f1061071357805160ff1916838001178555610741565b82800160010185558215610741579182015b82811115610740578251825591602001919060010190610725565b5b50905061074e9190610752565b5090565b5b8082111561076b576000816000905550600101610753565b5090565b600061078261077d846109b8565b610993565b90508281526020810184848401111561079e5761079d610c0d565b5b6107a9848285610ad6565b509392505050565b6000813590506107c081610c30565b92915050565b600082601f8301126107db576107da610c08565b5b81356107eb84826020860161076f565b91505092915050565b60008135905061080381610c47565b92915050565b60006020828403121561081f5761081e610c17565b5b600061082d848285016107b1565b91505092915050565b60006020828403121561084c5761084b610c17565b5b600082013567ffffffffffffffff81111561086a57610869610c12565b5b610876848285016107c6565b91505092915050565b60006020828403121561089557610894610c17565b5b60006108a3848285016107f4565b91505092915050565b6108b581610a9a565b82525050565b60006108c6826109e9565b6108d081856109ff565b93506108e0818560208601610ae5565b6108e981610c1c565b840191505092915050565b60006109016000836109f4565b915061090c82610c2d565b600082019050919050565b61092081610acc565b82525050565b6000610931826108f4565b9150819050919050565b600060208201905061095060008301846108ac565b92915050565b6000602082019050818103600083015261097081846108bb565b905092915050565b600060208201905061098d6000830184610917565b92915050565b600061099d6109ae565b90506109a98282610b4a565b919050565b6000604051905090565b600067ffffffffffffffff8211156109d3576109d2610bd9565b5b6109dc82610c1c565b9050602081019050919050565b600081519050919050565b600081905092915050565b600082825260208201905092915050565b6000610a1b82610acc565b9150610a2683610acc565b9250827fffffffffffffffffffffffffffffffffffffffffffffffffffffffffffffffff03821115610a5b57610a5a610b7b565b5b828201905092915050565b6000610a7182610acc565b9150610a7c83610acc565b925082821015610a8f57610a8e610b7b565b5b828203905092915050565b6000610aa582610aac565b9050919050565b600073ffffffffffffffffffffffffffffffffffffffff82169050919050565b6000819050919050565b82818337600083830152505050565b60005b83811015610b03578082015181840152602081019050610ae8565b83811115610b12576000848401525b50505050565b60006002820490506001821680610b3057607f821691505b60208210811415610b4457610b43610baa565b5b50919050565b610b5382610c1c565b810181811067ffffffffffffffff82111715610b7257610b71610bd9565b5b80604052505050565b7f4e487b7100000000000000000000000000000000000000000000000000000000600052601160045260246000fd5b7f4e487b7100000000000000000000000000000000000000000000000000000000600052602260045260246000fd5b7f4e487b7100000000000000000000000000000000000000000000000000000000600052604160045260246000fd5b600080fd5b600080fd5b600080fd5b600080fd5b6000601f19601f8301169050919050565b50565b610c3981610a9a565b8114610c4457600080fd5b50565b610c5081610acc565b8114610c5b57600080fd5b5056fea2646970667358221220bed9f5def40d75bc5562e19a5b32974de0aa64e65171b1febfca4d27647e83ea64736f6c63430008070033",
  "devdoc": {
    "kind": "dev",
    "methods": {},
    "version": 1
  },
  "userdoc": {
    "kind": "user",
    "methods": {},
    "version": 1
  },
  "storageLayout": {
    "storage": [
      {
        "astId": 13,
        "contract": "contracts/bankdpp.sol:bankdpp",
        "label": "yourAmountInBank",
        "offset": 0,
        "slot": "0",
        "type": "t_mapping(t_address,t_uint256)"
      },
      {
        "astId": 17,
        "contract": "contracts/bankdpp.sol:bankdpp",
        "label": "feedback",
        "offset": 0,
        "slot": "1",
        "type": "t_mapping(t_address,t_string_storage)"
      }
    ],
    "types": {
      "t_address": {
        "encoding": "inplace",
        "label": "address",
        "numberOfBytes": "20"
      },
      "t_mapping(t_address,t_string_storage)": {
        "encoding": "mapping",
        "key": "t_address",
        "label": "mapping(address => string)",
        "numberOfBytes": "32",
        "value": "t_string_storage"
      },
      "t_mapping(t_address,t_uint256)": {
        "encoding": "mapping",
        "key": "t_address",
        "label": "mapping(address => uint256)",
        "numberOfBytes": "32",
        "value": "t_uint256"
      },
      "t_string_storage": {
        "encoding": "bytes",
        "label": "string",
        "numberOfBytes": "32"
      },
      "t_uint256": {
        "encoding": "inplace",
        "label": "uint256",
        "numberOfBytes": "32"
      }
    }
  }
}